:100000000C94D6040C94F3040C94F3040C94F304B1
:100010000C94F3040C94F3040C94F3040C94F30484
:100020000C94F3040C94F3040C94F8300C94DE312B
:100030000C94B9160C94F3040C94F3040C94F3048C
:100040000C94F3040C94F3040C94F3040C94F30454
:100050000C94F3040C94D4300C94F3040C94F30437
:100060000C94F3040C94F3040C94F3040C94F30434
:100070000C94F3040C94F3040C94F3040C94F30424
:100080000C94F3040C94F3040C94F3040C94F30414
:100090000C94F3040C94F3040C94F3040C94F30404
:1000A0000C94F3040C94F3040C94F304050109027A
:1000B000A10185020901A1000509190129081500FE
:1000C0002501950875018102050109300931158165
:1000D000257F95027508810609381581257F9501D0
:1000E00075088106050C0A38021581257F95017572
:1000F000088106C0C005010904A1018507A100050A
:1001000001093009311581257F950275088102C0EA
:10011000C005010980A101850319012AB700150155
:1001200026B700950175108100C0050C0901A101D9
:10013000850419012AA002150126A0029501751057
:100140008100C005010906A1018506050719E029FE
:10015000E715002501950875018102050719002999
:10016000EF1500250195F075018102050819012997
:1001700005950575019102950175039101C0066011
:10018000FF0961A1010962150026FF00952075088D
:1001900081020963150026FF00952075089102C0B1
:1001A00005010906A101050719E029E71500250148
:1001B00095087501810295017508810105071900EF
:1001C00029FF150026FF009506750881000508190E
:1001D0000129051500250195057501910295017507
:1001E000039101C000AF00AE07087F0807003E5B27
:1001F0004F5B3E003E6B4F6B3E001C3E7C3E1C0046
:10020000183C7E3C18001C577D571C001C5E7F5E0E
:100210001C0000183C180000FFE7C3E7FF000018AF
:1002200024180000FFE7DBE7FF0030483A060E0025
:10023000262979292600407F05050700407F0525EE
:100240003F005A3CE73C5A007F3E1C1C0800081C3B
:100250001C3E7F0014227F2214005F5F005F5F005E
:1002600006097F017F00006689956A006060606012
:10027000600094A2FFA2940008047E0408001020ED
:100280007E20100008082A1C0800081C2A08080004
:100290001E10101010000C1E0C1E0C0030383E38C2
:1002A0003000060E3E0E06000000000000000000B8
:1002B0005F000000000700070000147F147F140097
:1002C000242A7F2A1200231308646200364956202C
:1002D0005000000807030000001C224100000041FC
:1002E000221C00002A1C7F1C2A0008083E08080067
:1002F00000807030000008080808080000006060F6
:1003000000002010080402003E5149453E00004212
:100310007F4000007249494946002141494D330060
:100320001814127F10002745454539003C4A4949B9
:100330003100412111090700364949493600464933
:1003400049291E0000001400000000403400000095
:100350000008142241001414141414000041221443
:1003600008000201590906003E415D594E007C1209
:1003700011127C007F49494936003E41414122002B
:100380007F4141413E007F49494941007F090909B8
:1003900001003E41415173007F0808087F00004181
:1003A0007F4100002040413F01007F0814224100AE
:1003B0007F40404040007F021C027F007F04081005
:1003C0007F003E4141413E007F09090906003E4150
:1003D00051215E007F09192946002649494932000A
:1003E00003017F0103003F4040403F001F204020A9
:1003F0001F003F4038403F006314081463000304AB
:10040000780403006159494D4300007F4141410098
:10041000020408102000004141417F000402010253
:100420000400404040404000000307080000205402
:10043000547840007F28444438003844444428001D
:10044000384444287F0038545454180000087E096A
:10045000020018A4A49C78007F08040478000044DB
:100460007D4000002040403D00007F1028440000F7
:1004700000417F4000007C04780478007C0804047C
:100480007800384444443800FC1824241800182408
:100490002418FC007C080404080048545454240028
:1004A00004043F4424003C4040207C001C204020A9
:1004B0001C003C4030403C004428102844004C9034
:1004C00090907C004464544C440000083641000085
:1004D000000077000000004136080000020102041D
:1004E00002003C2623263C000000000000004040A3
:1004F00040F0F8F8FF38FFF8F83FF8F8FF38FFF859
:10050000F8F040404000000000000080C0C0C08003
:100510000000C0C08000000080C0C000C0C000005B
:1005200080C0C00000000000C0C0C0C0C000C0C08B
:1005300000000000000000000000000000000000BB
:1005400000000000000000000000000000000000AB
:10055000000000000000000000000000000000009B
:1005600000000000000000C0F0F8FC3E1E06010084
:1005700000007F4141417F007F4141417F00008079
:10058000C0E07E5B4F5BFEC00000C000DCD7DEDE5B
:10059000DED7DC00C000000000000000000000000A
:1005A00000000000000000000000000000004949B9
:1005B00049FFFFFFFFE0DFBFBF00BFBFDFE0FFFF7E
:1005C000FFFF49494900000000001F3F6060E0BF95
:1005D0001F007F7F071E381E077F7F007F7F0E1F53
:1005E0003B716000000000007F7F0C0C0C007E7EE1
:1005F000007F7E0303007F7E03037E7E03037F7EF6
:10060000000F3E703C063C703E0F00327B49493F74
:100610007E007F7E0303001E3F69696F2600000095
:1006200000000000000000030F1F3F3C78706000D6
:1006300000007F4141417F007F4141417F00307B8D
:100640007F7830202030787F3B0003000F7F0F0F32
:100650000F7F0F00030000000000000000000000FA
:100660000000000000000000000000000000010188
:1006700001070F0F7F0F7F0F0F7E0F0F7F0F7F0F71
:100680000F07010101000000000000000000000150
:100690000100000000000000000000000000000059
:1006A000000000000000000000000000000000004A
:1006B000000000000000000000000000000000003A
:1006C000000000000000000000000000000000002A
:1006D000000000000000000000000000000000001A
:1006E000000000000000000000000000000000000A
:1006F00000000000000000000000000000000000FA
:1007000000000000000000000000000000000000E9
:1007100000000000000000000000000000000000D9
:1007200000000000000000000902BF00050100A059
:10073000FA0904000001030101000921110100016F
:100740002244000705810308000109040100020397
:100750000000000921110100012222000705820387
:100760002000010705030320000109040200010322
:1007700000000009211101000122D20007058403B5
:10078000200001080B03020101000009040300001E
:100790000101000009240100010900010409040409
:1007A00000020103000007240100014100062402A9
:1007B00001010006240202020009240301030102D0
:1007C0000100092403020401010100090506024099
:1007D000000500000525010101090585024000050D
:1007E000000005250101031201000200000008912C
:1007F000C4945700010102000112036300780074E1
:10080000005F003100390065003400000008037803
:100810000078007800000004030904290044001354
:10082000001400040005000600070008001F002750
:10083000001E0009000A000B0000000C000D000E55
:10084000000F002100057E067E007C520050004F04
:10085000005100A900AA000F7E0E7EDC00DB00DA4A
:1008600000D9005343523A207C005343523A407C13
:10087000004341503A207C004341503A407C004EB6
:10088000554D3A207C004E554D3A407C002D2D2D83
:100890002D2D2D2D2D2D2D004A4F59534C005557E0
:1008A000415344002057415344005343524F4C009E
:1008B0004D4F555345004A4D4F443A0041444A5329
:1008C00054005241495345004C4F57455200204275
:1008D000415345004C5945523A0000DA1281FFD984
:1008E000F1DB20A4A62EAF00A0C0D30000A1C8D386
:1008F0000000AED580A82F408D142000000000001D
:1009000000000000000000000000000000000000E7
:1009100000000000000000000000000000000000D7
:100920007E0F00D4FFFFFFC700000078000000002A
:10093000000000002A2B280000000000000000003A
:100940000000000000000029000000002C1E3420E0
:10095000212224342627252E362D3738271E1F2006
:100960002122232425263333362E37381F0405064B
:100970000708090A0B0C0D0E0F101112131415168F
:100980001718191A1B1C1D2F3130232D350405068D
:100990000708090A0B0C0D0E0F101112131415166F
:1009A0001718191A1B1C1D2F3130354C11241FBE6E
:1009B000CFEFDAE0DEBFCDBF11E0A0E0B1E0E8E6C6
:1009C000FFE602C005900D92AA38B107D9F725E0DD
:1009D000AAE8B1E001C01D92AA35B207E1F70E9472
:1009E000A2290C9410370C940000982F82958F70D8
:1009F000882311F0982F84E0292F2695269522230D
:100A000011F08E5F922F969591118F5F08950F933D
:100A10001F93462F572FBC01DB01CA01F4E0B695A6
:100A2000A79597958795FA95D1F70097A105B105F8
:100A300001F1AC01BD0184E08A019B01E2E0369541
:100A4000279517950795EA95D1F701151105210509
:100A5000310519F08E5FB901A80176956795579514
:100A60004795452B462B472B09F08F5F1F910F9120
:100A7000089580E0E1CF80930505089580930605F1
:100A8000089521E030E001C0220F8A95EAF78091B5
:100A90000605822B0E943E05089521E030E0A90161
:100AA00002C0440F551F8A95E2F7CA0180959091C4
:100AB000060589230E943E0508959B01677091E019
:100AC00001C0990F6A95EAF763E0369527956A9514
:100AD000E1F7B901660F771F260F371FFA01E20F02
:100AE000F31F40E050E0682F70E08191DF01119723
:100AF0009B01042E02C0369527950A94E2F72170D7
:100B000021952827292328272C934F5F5F4F4330B7
:100B1000510559F708959C01A82FA77083E03695D9
:100B200027958A95E1F7C901880F991F820F931FB6
:100B3000FB01E80FF91F40E050E080E0219130E038
:100B40000A2E02C0369527950A94E2F721703327C2
:100B5000042E01C0220F0A94EAF7822B4F5F5F4FE9
:100B60004330510559F70895282F862F973068F4A0
:100B7000243050F434E0939FB0011124620F711DB2
:100B800044EE54E00E945D0508959C5F9230E0F7CA
:100B9000622F70E041EE54E0F5CF282F973068F4D3
:100BA000843090F434E0939FC001112464EE74E02B
:100BB000820F911D0E948B0508959C5F923020F456
:100BC00061EE74E090E0F6CF80E008959091060524
:100BD00021E030E0F90101C0EE0F8A95EAF7D90172
:100BE00002C0AA0FBB1F6A95E2F7EA2B01C0220FD1
:100BF0004A95EAF7892F8E23E81305C0892F822BA7
:100C00000E943E0508952095822F8923F9CF809177
:100C10000C0590910B05981301C008958F5F8770A4
:100C2000FACF909107058095892380930705282F97
:100C3000277021110DC0891759F09091090592FF75
:100C400007C08695869586950E944D0510920705EA
:100C500008958091020590910A05892B5091030512
:100C60005523C1F090911F019923A9F09091080597
:100C700097FF11C09DE126E931E040E0F901608174
:100C80002F5F3F4F61114F5F9150C0F7411110929C
:100C90000305852B089595E02EE831E0EECF982FDF
:100CA0009095809102058923809302050895803EE6
:100CB0009105D1F1C8F48133910509F47FC048F45E
:100CC0008932910509F46FC08A32910509F47DC01B
:100CD000089589339105E1F082389105C9F0853393
:100CE000910509F45BC00895843E9105D1F148F463
:100CF000823E910531F1833E910541F181EE90E014
:100D00000895863E9105C1F1873E9105E1F1089570
:100D1000209108052370211165C02091090523FF4A
:100D200014C089E290E008952091080520FD43C099
:100D30003091090530FF09C024FF4EC080E090E0EB
:100D400008952091080522FDF7CF08952091080508
:100D500022FD45C03091090530FD44C024FFF5CF88
:100D6000EDCF2091090521FFF0CF8091080584FD8A
:100D7000E5CF87EE90E008952091080523FFE5CFA9
:100D800024FDDCCFF6CF2091080523FD2EC0309145
:100D9000090531FFE3CF84EE90E008952091080526
:100DA00025FFD3CFBECF2091080525FD21C020917E
:100DB000090523FFCACF89E390E008952091080533
:100DC00026FFC3CF8AE290E008952091080526FF10
:100DD000BCCF81E390E0089583EE90E0089582EE29
:100DE00090E0089580EE90E0089586EE90E00895FA
:100DF00085E390E0AACF9091080592FF10C041E0F2
:100E0000282F2471243009F040E031E0282F287188
:100E1000283009F030E0431711F02CE0822793FFCF
:100E200010C041E0282F2471243109F040E031E066
:100E3000282F2871283109F030E0431711F02CE0F9
:100E400082273091090530FF10C051E0282F217111
:100E5000213009F050E041E0282F2871283009F0B6
:100E600040E0541711F029E0822731FF10C041E023
:100E7000282F2171213109F040E031E0282F28711D
:100E8000283109F030E0431711F029E0822794FD62
:100E9000877E08951F93CF93DF930E945706EC013E
:100EA000811522E5920708F053C0811540E59407AB
:100EB00008F0DDC0803E9105F8F48D3C910508F006
:100EC000AEC0883A910580F4853A910508F099C042
:100ED0008130910521F00497813A910550F4CE01BB
:100EE000DF91CF911F910895885A91094B9708F48B
:100EF0008BC0C0E0D0E0F3CF811550E49507F8F443
:100F0000C11580E2D80708F0CBC0C83ED10538F340
:100F1000CE019A9581159F4160F78D2F0E94FB06A7
:100F2000182FCE0199270E945706212F30E0322F2B
:100F30002227E901CC27DF71C82BD92BD0CF9927E5
:100F40000E945706CC27DF70C82BD92BD06AC7CF99
:100F5000803842E59407C8F5803652E5950708F0D9
:100F600067C0C03482E5D807B0F08C2F869586958F
:100F7000877020E2829FC0011124C37021E030E01D
:100F8000A90102C0440F551FCA95E2F7EA01C82B18
:100F9000D92BDC68A4CFC03252E5D50708F041C098
:100FA0008C2F8695869520E2829FC0011124C37004
:100FB00021E030E0A90102C0440F551FCA95E2F7B5
:100FC000EA01C82BD92BDD688ACF803C52E5950712
:100FD00060F48F71C03AD24508F03FC090E0982F7E
:100FE0008827EC01C46FD06A7ACF805C92458097E5
:100FF00008F07FCFDC2FCC27CC27DF71C06FD06A01
:101000006ECFA497D0646BCFC85AD0E0CC0FDD1F51
:10101000CD5ADE4F0990D881C02DD46460CFD06501
:101020005ECFCF71D0E0DC2FCC27C16FD06A57CF15
:1010300086958695877020E2829FC0011124C37037
:1010400021E030E0A90102C0440F551FCA95E2F724
:10105000EA01C82BD92BDA6842CF0E94FB06C82FC1
:10106000D0E0DC2FCC27CC27DF71D06238CF8F7156
:101070000E94FB0665E0D695C7956A95E1F7CF70AB
:10108000D0E0DC2FCC27282F30E084FF05C054E0CF
:10109000220F331F5A95E1F7C22BD32BD0691FCFF4
:1010A0008D2F8F710E94FB06182FCE0199270E9469
:1010B0005706212F30E0322F222722273F71282B7D
:1010C000392BE901D2CF80E00895F894E82FE2951A
:1010D000EF70F0E041A18F7021E030E0B90102C073
:1010E000660F771F8A95E2F7CB01962F9095942390
:1010F00091A392A1892B82A37894089508950895CD
:10110000982F282F207F203D49F180F4203B41F18A
:1011100038F4907E903821F1203A11F180E0089562
:1011200081E0203C09F080E0880F0895203EC1F066
:10113000203FA1F7833F91F020F4813F79F0823F77
:10114000ECCF8D3F30F481E0983F10F4963F31F7BB
:1011500008959E5F81E09230D8F3E0CF82E0089559
:1011600083E0089590E06623E9F08C5C9E4FFC01DB
:1011700080818F3FB1F0E82FE295EF70F0E041A160
:101180008F7021E030E0B90102C0660F771F8A95A9
:10119000E2F7CB01962F9095942391A392A1892BEE
:1011A00082A30895805D9E4FE2CF90E06623A9F070
:1011B0008C5C9E4FFC0120812F3F91F0E22FE29545
:1011C000EF70E05EF0E0808190E02F7002C09595B6
:1011D00087952A95E2F781700895805D9E4FEACF4A
:1011E00080E00895282F35EB2303C001112497FFD9
:1011F00004C080589109892F089580589F4FFBCFD4
:101200008091F20480FD14C081FD14C082FD16C0DF
:101210008091F104882381F08E3180F420E5829F53
:10122000C00111246EE170E00E944F34862F0895B2
:1012300084E1089588E2089588E0089580E508959E
:101240008091F20480FD17C081FD17C082FD19C096
:101250008091F004882399F0883298F428E0829FE6
:10126000C001112468E270E00E944F3461157105DD
:1012700051F0862F089562E0FCCF64E0FACF61E080
:10128000F8CF68E0F6CF81E00895E091D704F091BF
:10129000D804309729F00190F081E02D0995089548
:1012A00080E00895DC01E091D704F091D8043097F4
:1012B00039F082E08C930680F781E02DCD0109950D
:1012C0000895A3E0B0E0E7E6F9E00C941C349C013B
:1012D0008091E5019091E60182179307A1F0309388
:1012E000E6012093E501E091D704F091D80430970E
:1012F00051F083E089833B832A830084F185E02DCC
:10130000CE01019609952396E2E00C943834A3E0CF
:10131000B0E0EDE8F9E00C941C349C018091E3010D
:101320009091E40182179307A1F03093E401209398
:10133000E301E091D704F091D804309751F084E0B4
:1013400089833B832A830084F185E02DCE010196B9
:1013500009952396E2E00C94383490911F0199236B
:10136000C1F09091080597FF14C0E82FE695E69527
:10137000E695803FF8F4F0E0EC56FE4F877021E0F0
:1013800030E001C0220F8A95EAF78281822B8283A6
:101390000895AEE8B1E0EFEF90E02D91821751F0A3
:1013A000EF3F19F4211101C0E92F9F5F9630A9F793
:1013B000EF3F09F408950E2E000CFF0BE457FE4F8B
:1013C000E6CF90911F019923E1F09091080597FFD6
:1013D00018C0E82FE695E695E695803FF0F4F0E03A
:1013E000EC56FE4F877021E030E0A90102C0440FA7
:1013F000551F8A95E2F7CA018095928189238283DD
:101400000895EEE8F1E09191891303C0DF0111978F
:101410001C9251E0E439F507B1F70895DC01FB01B6
:1014200011969C9111978181981322C012968C91EC
:101430001297882319F0928189131AC013968C9100
:101440001397882319F09381891312C015968C91F4
:101450001597882319F0958189130AC014969C91D9
:10146000992321F081E02481291303C080E001C089
:1014700081E081700895A4E0B0E0E1E4FAE00C942A
:101480001C348FB7F8942091DF013091E001409136
:10149000E1015091E20129833A834B835C838FBF42
:1014A00069817A818B819C812496E2E00C943834A6
:1014B00087E797E7909301088093000888E19AE016
:1014C0000FB6F894A895809360000FBE90936000CB
:1014D000FFCF8091DE010895FC019B018091D40132
:1014E0009091D5018617970740F0672B29F48091DA
:1014F000E8008E778093E800C90140E0009741F44E
:10150000411106C08091E80082FF2FC080E008955D
:101510002091B4042223A9F12530A9F12091E800FB
:1015200023FD2DC02091E80022FDECCF2091E800A2
:1015300020FFE4CF3091F3002091F200009719F0E2
:101540002830310558F041E02830310509F040E0FD
:101550002091E8002E772093E800D0CF419140936E
:10156000F10001972F5F3F4FE9CF8091B4048823AA
:1015700041F0853041F08091E80083FFC3CF81E0E6
:10158000089582E0089583E008958091CE0187FF59
:1015900013C08091E80082FF06C08091E8008B773D
:1015A0008093E80004C08091B4048111F2CF0895C3
:1015B0008091B4048823D9F38091E80080FFF8CFAC
:1015C0008091E8008E77ECCF2091E4003091E50027
:1015D00095E6A9018091EC008170882331F080911B
:1015E000E80080FF06C080E008952091E80022FD19
:1015F0001BC08091B404882391F0853091F08091D4
:10160000EB0085FD10C02091E4003091E500421709
:10161000530701F391509111DCCF84E0089582E0EB
:10162000089583E0089581E00895E8EDF0E0808179
:101630008E7F80831092E2001092DA001092E10017
:10164000A0EEB0E08C9181608C9380818F77808355
:1016500019BCA7EDB0E08C918E7F8C9380818F7E3A
:1016600080831092CD010895EF92FF920F931F9304
:10167000CF938C017B010E94E40AC82F81110EC018
:101680008091E80085FD11C08091E8008B77809300
:10169000E8000E94E40A882399F3C82F8C2FCF9189
:1016A0001F910F91FF90EF9008958091F100F80144
:1016B0008083F1E0EF1AF108E114F10479F30F5F90
:1016C0001F4FDECFA7E0B0E0E8E6FBE00C94153456
:1016D0007E0125E0E20EF11C8C0108511F4F809124
:1016E000B404843009F066C0809119018F70809332
:1016F000E9008091E80082FF5DC08091E80085FFED
:1017000059C040E050E064E070E0CE0101960E94D4
:10171000340B8091E80085FD05C08091E8008B774F
:101720008093E800DA808D2D0E948008282FDD82CA
:101730008B818E838C818F83211108C02981243075
:1017400019F18BEF820F2450833048F66701D601E0
:10175000BD906D013FB7F894D8011196EC911197A7
:10176000F0E0CF01019612966C9170E00E944F3428
:10177000D8014C9150E08417950741F43FBF8C2D60
:101780008E19821720F3ABCF23E0E0CF13968D9113
:101790009C911497E80FF91FB08211968C911197C4
:1017A00090E0019612966C9170E00E944F34F8011F
:1017B0008183E4CF2796E9E00C943134A3E0B0E0D4
:1017C000E4EEFBE00C9416347C01162FD42EC22ECE
:1017D0008091DA03843069F5E091CF03F091D00372
:1017E0003097B9F1970121503109C90163E070E0E8
:1017F0000E94F833B901681B790B19834A83CB82A5
:101800004E2D461B9E012F5F3F4F85EB93E00995C0
:10181000E091D303F091D403309739F00C2D2D2DA6
:10182000412FB70185EB93E009952396E8E00C94EE
:10183000323482E0E816F10409F453C083E0E8167C
:10184000F104A9F081E0E816F10409F478C0E12C74
:10185000F12CE091D103F091D2033097C9F20C2D15
:101860002D2D412FB70185EB93E00995D1CF862F20
:10187000807F803B39F1A8F4803949F1E091BD03C4
:10188000F091BE03803A31F0E091BB03F091BC03CC
:101890008038F9F63097E9F22C2D4D2D612F6F70BD
:1018A0000DC0803EC9F0803FA1F6623F91F6E09105
:1018B000C103F091C20362EF309759F285EB93E0D8
:1018C0000995A6CFE091B703F091B803E3CFE0917B
:1018D000B903F091BA03DECFE091BF03F091C003EA
:1018E000D9CF862F807F803D99F0803FB1F0E09185
:1018F000C303F091C403803C09F0ABCF4D2D612FA1
:101900006F70309709F4A5CF85EB93E0099580CFF0
:10191000E091C503F091C603F1CFE091C703F091C8
:10192000C803633F39F0613F09F093CFE091C903E9
:10193000F091CA034D2D612F309731F78ACFE09196
:10194000CB03F091CC03683F38F4663F09F081CFB8
:10195000E091CD03F091CE03309709F47ACF612F57
:1019600085EB93E0099554CFEF92FF920F931F936D
:10197000CF938C017B010E94E40AC82F81110EC015
:101980008091E80085FD11C08091E8008E778093FA
:10199000E8000E94E40A882399F3C82F8C2FCF9186
:1019A0001F910F91FF90EF900895F801808180932F
:1019B000F100F1E0EF1AF108E114F10479F30F5F9F
:1019C0001F4FDECFA4E0B0E0E8EEFCE00C9417344B
:1019D0007B01142FD22E4A832B830C83842F0E94E9
:1019E000800881113AC082E0E816F10489F083E0B2
:1019F000E816F10441F081E0E816F10451F5173FD3
:101A000029F415E009C017E0073F31F014E004C0E5
:101A100087EF16E0D812FACF19838091B40484308E
:101A2000C1F4809114018F708093E90040E050E090
:101A300064E070E0CE0101960E94B40C811109C0EF
:101A40008091E80085FD05C08091E8008E77809345
:101A5000E8002496E7E00C94333412951F70DCCF35
:101A6000982F9093E900242F762F50E0891731F0BA
:101A70007091EC002091ED005091F00021FD06C026
:101A80009F5F973071F78093E90008953091EB00E4
:101A90003E7F3093EB003091ED003D7F3093ED00C1
:101AA0003091EB0031603093EB007093EC002093A9
:101AB000ED005093F0002091EE0027FDE1CF089556
:101AC000A0E0B0E0E6E6FDE00C941634C8EDD0E00E
:101AD00088818F7E8883E7EDF0E08081816080835C
:101AE00084E082BF81E08093CD0188818E7F8883EE
:101AF00002EE10E0F80110821092DA0081EEC82E9A
:101B0000D12CF601108288818F7788838881806844
:101B1000888388818F7D888319BC1092B4041092C9
:101B2000CC01109295031092CB0190EEE92EF12C8E
:101B3000F70180818B7F808388818160888342E088
:101B400060E080E00E94300DF60180818E7F80830E
:101B5000F801808181608083808188608083F701C3
:101B600080818E7F8083888180618883CDB7DEB756
:101B7000E8E00C943234E0910C0590910B0527E0DD
:101B8000E91302C080E00895AE2FB0E02E9FF0016F
:101B90001124E35FFA4F3181361306C030813813C8
:101BA00003C03581341304C0FD013196E770E8CFDE
:101BB00081E0089586E30E947E32909359058093D8
:101BC000580581EF0E947E32909357058093560509
:101BD000089526982E9A8198899A86E30E947E32EB
:101BE000909359058093580581EF0E947E3290931F
:101BF0005705809356050E94DA0D0895A6E0B0E0DF
:101C0000E4E0FEE00C94173469837A830E947E320C
:101C10009C0149815A818417950709F46EC0841785
:101C2000950708F057C0481B590B9A0169817A81C2
:101C3000685C71097E836D831FEFB901330F880BD8
:101C4000990B69837A838B839C830E941736D62EE7
:101C5000E72EF82E092F8D819E81092E000CAA0BEC
:101C6000BB0B89839A83AB83BC83BC01CD010E94EB
:101C700017369B01AC01D982EA82FB820C83698111
:101C80007A818B819C810E946D3520E030E048ECA8
:101C900052E469837A838B839C8369817A818B8107
:101CA0009C810E94A33669837A838B839C8369819C
:101CB0007A818B819C810E94DF3577FD1EC065365D
:101CC0007105BCF084E6189F802D11242696E7E06C
:101CD0000C94333489819A81281B390B80E293E07C
:101CE000DC0149815A81A41BB50BBE83AD8311E091
:101CF000A4CF169F802D1124E9CF80E0E7CFA6E086
:101D0000B0E0E5E8FEE00C94173469837A830E9422
:101D10007E329C0149815A814817590709F4DAC07B
:101D20008417950708F0BBC0481B590B9A016981BD
:101D30007A81685C71097E836D831FEFB901330F6F
:101D4000880B990B69837A838B839C830E94173657
:101D5000D62EE72EF82E092F8D819E81092E000C9C
:101D6000AA0BBB0B89839A83AB83BC83BC01CD01D7
:101D70000E9417369B01AC01D982EA82FB820C8358
:101D800069817A818B819C810E946D3520E030E0F1
:101D900048EC52E469837A838B839C8369817A81DE
:101DA0008B819C810E94A33669837A838B839C8379
:101DB00069817A818B819C810E94DF35462F572F64
:101DC0009A0137FD87C0812F012E000C990B253613
:101DD00031050CF473C024E6289FD001299FB00D73
:101DE0001124BE83AD834D815E81052E000C660BF0
:101DF000770B49835A836B837C83CB01BA010E94A2
:101E0000173620E030E048EC52E469837A838B8314
:101E10009C8369817A818B819C810E946D359B01B5
:101E2000AC0169837A838B839C8369817A818B81FE
:101E30009C810E9401357B018C018D819E8197FFE1
:101E400003C091958195910964E170E00E944F343F
:101E5000CB01770FAA0BBB0B89839A83AB83BC831F
:101E6000BC01CD010E9417369B01AC01E982FA82C8
:101E70000B831C8369817A818B819C810E94A336AC
:101E800069837A838B839C8369817A818B819C812E
:101E90000E94DF35862F2696E7E00C943334898143
:101EA0009A81281B390B80E293E0DC0149815A8139
:101EB000A41BB50BBE83AD8311E040CF849F90017E
:101EC000859F300D949F300D11243E832D83232B4D
:101ED00009F089CF80E0DFCF83E190E00E94B03449
:101EE0006093520570935305809354059093550564
:101EF000653070F010925205409152055091530593
:101F0000609154057091550583E190E00E94DE34A4
:101F1000809152058093510580915305843070F073
:101F2000109253054091520550915305609154050C
:101F30007091550583E190E00E94DE348091530555
:101F4000809350050895282FCB01BA013091B40435
:101F50003430D9F42093E9002FEF3091E80035FDBB
:101F600007C035ED3A95F1F7000021502111F5CF6A
:101F70002091E80025FF09C040E050E00E94B40C29
:101F80008091E8008E778093E8000895CF93DF93E7
:101F9000D82FC92F48E050E0682F792F81E00E94A8
:101FA000A30F88E0ED2FFC2FA6EDB1E001900D927C
:101FB0008A95E1F7DF91CF910895BC0140E250E0AE
:101FC00084E00E94A30F0895BC0146E050E084E045
:101FD0000E94A30F0895BC0143E050E084E00E94FA
:101FE000A30F08959091090592FB222720F9281745
:101FF00079F080FB92F99093090560910805709142
:10200000090584E090E00E94EA3482E00E94110613
:1020100008951F93CF93DF93C62F122F632F982F0E
:10202000942B9430C8F4C730B8F498E0C99FE0010D
:10203000112450E0440F551FC40FD51F98E3899F0A
:10204000C00DD11D1124CE0188960E94CC34612F81
:10205000CE0189960E94CC34DF91CF911F910895D3
:102060001F93CF93DF93962F122F632F282F292BA7
:102070002430C0F420E1829FE001112424E0929FEB
:10208000C0011124C80FD91FC85FDE4FCE01442301
:1020900069F00E94CC3481E090E0612F8C0F9D1F8D
:1020A0000E94CC34DF91CF911F91089502960E9437
:1020B000CC3483E090E0F1CFA0E0B0E0E2E6F0E1E4
:1020C0000C941634C0E08BE1E82E88E0F82ED0E0C6
:1020D00019C021E030E0C11104C0F601859194914E
:1020E0009C01412F6D2F8C2F0E9409101F5F82E0F1
:1020F000C80ED11C143069F7DF5F88E0E80EF11CD0
:10210000D73019F0670110E0E4CF03E518E0D0E024
:10211000CC23E1F021E030E041E06D2F8C2F0E94D4
:10212000301021E030E040E06D2F8C2F0E94301005
:10213000DF5F0C5F1F4FD43059F7CF5FC43009F019
:10214000C2CFCDB7DEB7E8E00C943234F801259168
:10215000349141E06D2F80E00E943010F8013296FA
:10216000859194919C01DFCFCF93DF93C8E4D1E0B8
:1021700060E0CE010E94CC342196C11584E0D807DE
:10218000B9F7DF91CF910895882381F064E284E26A
:1021900090E00E94CC3466E085E290E00E94CC346E
:1021A00067E186E290E00E94CC3408956FEF84E20C
:1021B00090E00E94CC346FEF85E290E00E94CC3436
:1021C0006FEFEFCF80E00E94C41060E087E290E004
:1021D0000E94CC340E945C100E94B41081E00E94E6
:1021E000C41008950F931F93CF93DF93982F942BD0
:1021F000943020F5673010F528E0629FE00111244B
:1022000050E0440F551FC40FD51F38E3839FC00D06
:10221000D11D1124CE0188960E94A834082F10E009
:10222000102F0027CE0189960E94A8349801282BF0
:10223000C901DF91CF911F910F91089580E090E047
:10224000F8CF0F931F93CF93DF93982F962B943053
:1022500068F520E1829F8001112434E0639FB00182
:102260001124060F171F085F1E4FC8014423A1F059
:102270000E94A834C82FD0E0DC2FCC2781E090E06A
:10228000800F911F0E94A8349E01282BC901DF9165
:10229000CF911F910F91089502960E94A834C82FE4
:1022A000D0E0DC2FCC2783E090E0EACF80E090E024
:1022B000EECF773048F4982F962B943060F4462F69
:1022C000672F0E94F21008957D3F41F4982F962BBE
:1022D00041E0943050F080E090E008957C3FD9F7E1
:1022E000982F962B9430B8F740E00E942111089562
:1022F000A0E0B0E0EEE7F1E10C9417347C0100912E
:10230000060580910505082BC3E0D0E010E0C80168
:102310000C2E02C0959587950A94E2F780FD09C0BE
:102320002197A8F7D12C8D2DCDB7DEB7E7E00C941F
:102330003334DC2EB7018C2F0E9459110E944A07BA
:10234000019771F3F0CF0F931F93CF93FC01858119
:1023500000811181882391F0662381F0C8010E94D9
:102360007811C82F682FC8010E94B405B8018C2FBE
:102370000E945911CF911F910F910895C8010E9499
:10238000CD05C82FF3CFCF93DF93D82FC92F0E944D
:1023900078116D2F7C2F0E9459110E944A07DF91FE
:1023A000CF910895FC0184818823A1F080819181DF
:1023B0000E94C311282F92959F70963091F060F47F
:1023C000925F9F70923030F481E0203F79F030F4DA
:1023D000283E30F080E004C09A5FF3CF243FD1F76D
:1023E000089581E0283E18F0213FF9CF089508951F
:1023F00084E290E00E94A834843289F485E290E07F
:102400000E94A834863059F486E290E00E94A834F5
:1024100091E0873109F090E0892F8170089580E084
:10242000FCCFCF9368EF71E089EF94E00E940E0A31
:10243000C82F882321F089EF94E00E9452099091DF
:10244000FA0486E0E9EFF4E0DF01282F1D922A95D7
:10245000E9F79093FA04A8EFB1E001900D928A9504
:10246000E1F781E0C11103C0911101C080E08170EA
:10247000CF910895AEE1B0E0E0E4F2E10C941C34B9
:102480004091F9045091FA046091FB047091FC04AE
:102490008091FD049091FE040E94D51C2093F904C4
:1024A0003093FA044093FB045093FC046093FD04C2
:1024B0007093FE0486E0E9EFF4E0DE0117960190E8
:1024C0000D928A95E1F78091FB048195898786E0DA
:1024D000FE013796DE011D9601900D928A95E1F777
:1024E00086E0FE013D96DE01119601900D928A95DF
:1024F000E1F786E0FE013196A9EFB4E001900D927C
:102500008A95E1F786E0E9EFF4E0DE015996019063
:102510000D928A95E1F786E0FE017996DE01179625
:1025200001900D928A95E1F786E0FE013796DE0173
:10253000119601900D928A95E1F786E0FE013196A1
:10254000DE01539601900D928A95E1F786E0FE0137
:102550007396DE01179601900D928A95E1F786E059
:10256000FE013796A9EFB4E001900D928A95E1F74C
:102570008091FA049091F404892B8093FA040E94CC
:102580001112811109C08091F7011092F701817039
:102590006E96E2E00C94383481E090E0F6CF8091C2
:1025A0001F01882359F18091080587FF27C00E94E9
:1025B00029068093950140E250E067EB74E084E9DE
:1025C00091E00E949B34892BC1F080E2E4E9F1E0C4
:1025D000A7EBB4E001900D928A95E1F7E091D70462
:1025E000F091D804309749F086E0809394010480FC
:1025F000F581E02D84E991E0099508950E9429066E
:1026000080938C0148E050E069ED74E08CE891E043
:102610000E949B34892B89F388E0ECE8F1E0A9ED76
:10262000B4E001900D928A95E1F7E091D704F09122
:10263000D804309711F30280F381E02D8CE891E00B
:10264000DBCF882339F090910205892B8093020516
:102650000E94CF120895882321F00E944F060E9405
:10266000CF120895AB0124E630E0BC0188E70E9458
:1026700059339C0181E0232B09F080E0089580917B
:102680008D03882369F080918C03882349F062E0F0
:1026900070E086EE91E00E943213811110928C035B
:1026A0000895A4E0B0E0E7E5F3E10C941C348091D8
:1026B0008D038823F9F00E943B0ADC01CB01805A8C
:1026C0009541AF4FBF4F80938E0390938F03A0939C
:1026D0009003B093910380918C0381110BC062E051
:1026E00070E084EE91E00E943213882319F081E0BB
:1026F00080938C032496E2E00C943834A0E0B0E0A0
:10270000E4E8F3E10C941634682F8091090290916B
:102710000A026A30C9F4209192038B509240622FD2
:1027200070E00E94F833281B822F66E00E94433439
:10273000C82FC15028F4CDB7DEB7E8E00C9432348E
:1027400080E20E947E13F5CF6D30F9F49C012B508E
:10275000324040919203642F70E0C9010E94F83327
:10276000481B842FA901480F511D4038514018F0D3
:1027700080E020E030E0820F932F911D855F9D4F18
:1027800090930A0280930902D6CF26E0FC01AEEBBB
:10279000B1E001900D922A95E1F7603E08F46BC01C
:1027A00026E0FC0111922A95E9F7C0910902D09127
:1027B0000A0246E050E0BE018EEB91E00E949B349D
:1027C0009E012B503240892BD9F1C90144E09695E6
:1027D00087954A95E1F741E050E060E070E07A01CA
:1027E0008B0104C0EE0CFF1C001F111F8A95D2F74D
:1027F000D801C701C0900502D0900602E090070200
:10280000F09008028C299D29AE29BF29F90135963F
:10281000C4E0F695E795CA95E1F704C0440F551F4B
:10282000661F771FEA95D2F7842B952BA62BB72B23
:102830008093050290930602A0930702B0930802CA
:102840002A5F3F4F40919203642F70E0C9010E94BC
:10285000F833481B463010F4240F311D203801E0B6
:10286000300710F020E030E0255F3D4F30930A0242
:102870002093090260CFF6E06F9FB00111246851E8
:102880007E4F46E050E00E9492348FCFA5E0B0E04A
:10289000ECE4F4E10C941A3428EE33E040E050E02C
:1028A0000E946334022F24E630E040E050E00E94B2
:1028B0006334122F2AE030E040E050E00E9463349D
:1028C0002D83698380E3800F0E947E1380E3810F54
:1028D0000E947E138D81805D0E947E138981805DC0
:1028E0000E947E132596E4E00C943634CF93DF9358
:1028F000EC01FE018491811103C0DF91CF91089515
:102900000E947E132196F5CF4F925F926F927F9235
:102910009F92AF92BF92CF92DF92EF92FF920F936E
:102920001F93CF93DF93CDB7DEB72D970FB6F894F3
:10293000DEBF0FBECDBF80918D03882309F4E1C0B7
:102940008BE092E090930A028093090284ED98E074
:102950000E947614809106050E94F5048230F1F001
:1029600038F4811118C08EEC98E00E94761402C0F1
:102970008330B9F086EB98E00E947614809151057F
:10298000823009F4D7C080F48111D1C080EB98E087
:102990000E9476140FC088EC98E0E7CF82EC98E0B4
:1029A000E4CF8CEB98E0E1CF833009F4C6C08430EB
:1029B00009F4C6C08DE898E00E94761487EF0E9463
:1029C0007E3220E034E0281B390BC901330FAA0BFB
:1029D000BB0B89839A83AB83BC8386E30E947E32E0
:1029E0009C01990F440B550B2D833E834F835887D1
:1029F00081EF0E947E329C01990F440B550B298771
:102A00003A874B875C870E9445098D8780FD9BC074
:102A10008FE798E00E94761469817A818B819C818E
:102A20000E944614CD8481E798E0C1FE02C088E789
:102A300098E00E9476146D817E818F8198850E9436
:102A40004614CD848AE698E0C2FC02C083E698E092
:102A50000E94761469857A858B859C850E94461430
:102A60008091050290910602A0910702B0910802A0
:102A7000BB278093050290930602A0930702B093B0
:102A80000802892B8A2B8B2BC9F080918D03882318
:102A9000A9F080918B03811111C00E9451134091C4
:102AA000050250910602609107027091080290E0C1
:102AB000411551056105710509F049C080918C03EC
:102AC0008823F9F00E943B0A69837A838B839C8375
:102AD00080918E0390918F03A0919003B091910308
:102AE00029813A814B815C81281B390B4A0B5B0B96
:102AF000DA01C9018F3F9F4FAF4FBF4710F40E94CB
:102B00003F132D960FB6F894DEBF0FBECDBFDF91F9
:102B1000CF911F910F91FF90EF90DF90CF90BF90DA
:102B2000AF909F907F906F905F904F9008958AEA4A
:102B300098E02ECF84EA98E02BCF8EE998E028CF5A
:102B400088E998E025CF86E898E064CF9F5F692EFA
:102B5000712C8A019B01092E04C036952795179583
:102B600007950A94D2F700FFF1CF8091930380FD7F
:102B70005BC0A3015595479555954795842F929530
:102B8000907320E2290F915D20930201409305018B
:102B9000909303018093060124E630E047E050E083
:102BA00060E071E088E70E940E33892B09F086CF40
:102BB000230124E0440C551C2A95E1F780919303EE
:102BC000A201455F5D4F80FD54C004E610E020E1A6
:102BD00030E060E488E70E94A633892B09F06ECFCD
:102BE00081E090E0A0E0B0E004C0880F991FAA1F28
:102BF000BB1F6A94D2F780959095A095B0954091AF
:102C00000502509106026091070270910802842328
:102C10009523A623B7238093050290930602A093E1
:102C20000702B09308024ACFC30163E070E00E943C
:102C30004F349B012C5F3F4F220F220F220FC30105
:102C400044E0880F991F4A95E1F760E370E00E9425
:102C50004F3497FD079633E0959587953A95E1F7C0
:102C600091958195910944E0480F97E0920F8B5F11
:102C70008BCFA7EEB1E080E1FD0111928A95E9F7D3
:102C8000FD018D0120E030E097E0B92EAA24A39445
:102C90009B2C921ACA2C022E01C0CC0C0A94EAF783
:102CA0007A0190E0D7018D917D018C21692D691BFE
:102CB000677070E0B82F062E01C0BB0F0A94EAF7C8
:102CC0007195619571096770772701C086956A953E
:102CD000EAF76B2F682BD80118968C911897862BE2
:102CE00018968C939F5F9830E9F62F5F3F4F0F5FE8
:102CF0001F4F2830310561F682010D5E1D4F20E027
:102D000030E087E0F82EEE24E394DF2CD21A7E2DFB
:102D1000022E01C0770F0A94EAF7D80190E08D9156
:102D200087236D2D691B6770462F50E0C82E01C0A8
:102D3000CC0C6A95EAF75195419551094770552792
:102D400001C086954A95EAF74C2D482B8081842B4B
:102D500080839F5F983019F72F5F3F4F319628305F
:102D6000310599F604E610E020E130E047EE51E04D
:102D700030CF1F921FB61F9211248F939F93AF9352
:102D8000BF9380919403811113C08091DF019091D2
:102D9000E001A091E101B091E2014196A11DB11DB8
:102DA0008093DF019093E001A093E101B093E201F1
:102DB000BF91AF919F918F911F901FBE1F9018954B
:102DC0002FB7F8948091DF019091E001A091E1018B
:102DD000B091E2012FBF08950E94E0162091F50402
:102DE0003091F604232B222321F08093B303909398
:102DF000B4032091F7043091F804232B222321F00F
:102E00008093B1039093B20383EF94E00E94520940
:102E100008959091F5044091F704662309F46CC07D
:102E20002091F604922B2091F804922B942B992355
:102E300031F098E09093F10491E09093F0048D3C90
:102E400041F40E94000981958093F6040E94EC16DB
:102E50000895E2E3E80FE231C8F7F0E0EE5EF84CE7
:102E60000C9485340E940009EFCF0E9400098195DF
:102E70008093F504EBCF0E940009FACF0E9420094D
:102E80008093F704E3CF0E9420098195F9CF0E9437
:102E9000200981958093F804D9CF0E942009FACFA8
:102EA000282F215D330BA90121E030E0B90102C0D8
:102EB000660F771F4A95E2F79091F404962B909352
:102EC000F404815D01C0220F8A95EAF78091FA042B
:102ED000822B8093FA040E94111208958091F204CB
:102EE00081608093F204B2CF8091F2048260F9CFC6
:102EF0008091F2048460F5CF8D3C09F52091F604B1
:102F000027FD0DC09923B1F12CEF3FEF41119ECF6A
:102F10009091F804911123C01092F00420C01092F7
:102F2000F6049111F1CF1092F10411C01092F60441
:102F30009923C9F341118ACF2DEF3FEFE9CF8E3CA2
:102F400099F42091F60412168CF3992399F0482FE6
:102F5000415D550B9A019091F7049923C9F22830ED
:102F6000310508F472C072CF8F3C49F497FFEDCF62
:102F70001092F5049091F6049111E9CFD4CF803DE1
:102F800049F41916ACF39923A9F341115FCF2FEF40
:102F90003FEFBECF893D71F414163CF0992351F3F5
:102FA000411154CF28E030E0B3CF1092F7049111D3
:102FB000F9CFE0CF8A3D71F447FF07C01092F704C4
:102FC0009923C1F229E030E0A3CF992399F241116E
:102FD0003DCFF8CF8B3D69F42091F80427FD109286
:102FE000F804992339F22AE030E0442309F490CF21
:102FF0002DCF8C3D79F42091F804121614F4109220
:10300000F804992309F4B6CF2BE030E0442309F407
:103010007FCF1CCF2FE2280F283030F5682F615D5D
:10302000770B9B0161E070E0022E01C0660F0A94ED
:10303000EAF760955091F40465236093F4049923B2
:1030400009F498CF442309F463CF815D4091FA04D9
:1030500021E030E0B90102C0660F771F8A95E2F7E0
:10306000CB018095842335CF8D3D69F42091F20406
:103070002E7F2093F204992309F47CCF4111E6CEF0
:103080002CE030E045CF8E3D69F42091F2042D7F95
:103090002093F204992309F46DCF4111D7CE2DE08E
:1030A00030E036CF8F3D09F050CF2091F2042B7FD6
:1030B0002093F204992309F45DCF4111C7CE2EE08D
:1030C00030E026CFCF93C82F8823B1F18CEF8C0F3F
:1030D000813AA0F580911F01882301F180910805B4
:1030E00087FF1CC0EC2FE695E695E695F0E0EC56E0
:1030F000FE4F828190E04C2F477021E030E002C00B
:10310000220F331F4A95E2F782239323892B79F00C
:103110008C2F0E94E1090E94CF1209C0EEE8F1E075
:103120008191C817A9F321E0E439F207C9F78C2F80
:103130000E94AD090E94CF12CF91089580E28C0FBA
:10314000883068F4C77081E090E001C0880FCA95AC
:10315000EAF7C0910205C82BC0930205EBCF8BE5BF
:103160008C0F833038F42C2F2452330BC9010E946A
:103170006109E2CFE8E5EC0FEB3150F4F0E0EE0F3F
:10318000FF1FED5AFE4F808191810E948709D4CFA5
:1031900083E38C0F833180F661E08C2F0E94091746
:1031A000CBCF882381F19CEF980F913A28F40E94AD
:1031B000E1090E94CF12089590E2980F983050F4E0
:1031C000877091E001C0990F8A95EAF7892F0E94D4
:1031D0004F06EFCF9BE5980F933028F480E090E006
:1031E0000E946109089598E5980F9B3128F480E0CA
:1031F00090E00E948709089593E3980F933118F4A3
:1032000060E00E94091708951F93CF93DF93182F52
:10321000EB010E946218209739F4812F0E94D11887
:10322000DF91CF911F9108958FE99FE00197F1F70A
:1032300000C000002197EFCF60E070E0893311F407
:1032400060E570E00E9404190895109202058091D3
:103250001F01882339F18091080587FF23C0E6E923
:10326000F1E08EE1DF011D928A95E9F780E090E0C0
:103270000E94610980E090E00E94870910920A058F
:103280000E94CF1286E0E3EFF4E0DF011D928A9501
:10329000E9F71092F1041092F0041092F2040E94E7
:1032A000EC160895EEE8F1E086E0DCCF0E942519E7
:1032B0002FEF84E39CE0215080409040E1F700C074
:1032C000000088E19AE00FB6F894A895809360001A
:1032D0000FBE90936000FFCF809312010E94E01612
:1032E0009093AB048093AA0481E08093AC0408958A
:1032F000AAE2B0E0EEE7F9E10C9418348EEC91E02C
:10330000FC0101962091F100208321E0863D920787
:10331000B9F78091CF01893009F456C0C8F48230E2
:1033200009F4B3C0833009F482C0813071F1809117
:10333000E80083FFE7C08091CE019091CF019A30E1
:1033400008F0E0C0E92FF0E0EC5DF84C0C94853417
:103350008A3009F489C08B3051F78091CE018132D7
:1033600031F78091D2019091D301892B01F780919F
:10337000E800877F8093E8000E94C50A8091D00111
:1033800080931F010E942519D2CF8091CE01813AEE
:1033900071F68091E800877F8093E8008091D201E8
:1033A0009091D301892B61F060E080E090E070E0C3
:1033B0000E946C0A8091E8008B778093E800B7CF79
:1033C00068E086ED91E0F3CF8091CE01813209F083
:1033D000AECF8091D2019091D3018D7F892B09F0DE
:1033E000A6CF8091E800877F8093E8008091E80075
:1033F00082FF18C09091F3008091F200029731F49F
:103400008091F100813011F0863021F48091F1003B
:103410008093DE018091E8008B778093E8000E9422
:10342000C50A85CF8091B4048111E0CF80CF80910F
:10343000CE01813A09F07BCF8091D2019091D301E6
:10344000892B09F074CF8091E800877F8093E80092
:103450008091E80080FFFCCF80911F018093F100F4
:103460008091E8008E77D9CF8091CE01813209F02A
:103470005ECF8091E800877F8093E8000E94C50AB4
:103480008091D1018093C40152CF8091CE01813AC5
:1034900009F04DCF8091E800877F8093E80080910C
:1034A000E80080FFFCCF8091C401D8CF803889F03C
:1034B000823841F58091D2018F70873018F5809362
:1034C000E9008091EB0085FB882780F91092E900E4
:1034D00006C08091CB0190919503911182609091EB
:1034E000E800977F9093E8008093F1001092F1003C
:1034F0008091E8008E7723C0811116C08091D001A1
:10350000813011F18091E80083FF0AC08091E800CA
:10351000877F8093E8008091EB0080628093EB00CE
:10352000AA96E6E00C943434823061F78091D001A1
:10353000882389F01092E9008091E800877F8093CA
:10354000E8000E94C50ADECF81E0933009F080E0F8
:1035500080939503EFCF8091D2018F702FEF280FCA
:10356000263080F68093E9002091EB0020FFE2CF27
:10357000933031F48091EB0080628093EB00DACFDE
:103580009091EB0090619093EB0021E030E0A90175
:1035900002C0440F551F8A95E2F74093EA0010924B
:1035A000EA008091EB008860E8CF8111ABCF1091E9
:1035B000D0011F778091E3008078812B8093E30016
:1035C0008091E800877F8093E8000E94C50A80917F
:1035D000E80080FFFCCF8091E30080688093E300E7
:1035E00083E0111101C082E08093B4048BCF805836
:1035F000823008F087CF6091D0017091D1016C3D8D
:1036000053E0750799F583E08A838AE289834FB78F
:10361000F894DE01139620E03EE051E2E32FF0E063
:1036200050935700849120FF03C082958F703F5FB5
:103630008F708A30C8F0895C90E08D939D932F5FE6
:10364000243161F74FBF8091E800877F8093E800C5
:103650006AE270E0CE0101960E946C0A8091E80057
:103660008B778093E8004ECF805DE6CF8091D201CA
:103670009091D3014091D4015091D501272F332748
:103680002330310549F178F42130310509F4F4C0D3
:103690002230310509F036CF0FEB10E088E2E82E3A
:1036A00087E0F82EC6C02132310509F4B5C02232B8
:1036B000310509F027CF8330910508F023CFFC01B5
:1036C000EE0FFF1FEC5DFE4FE080F1808F5D9E4F9F
:1036D000FC01008110E08EC0CB0199276130A9F177
:1036E0008230910509F43BC000E010E0E12CF12CA0
:1036F000892B49F4E7E1F8E0E4910E2F10E0E7E1CF
:10370000EE2EE8E0FE2E8091C5018F5F8093C5010B
:103710005093CA014093C9014230510551F590912F
:10372000C6019F5F9093C601833008F45AC0909100
:10373000C801923008F444C02091C701222309F443
:103740003BC082E08093FF044CC0EDE0F8E0E491E0
:103750000E2F10E07DE0E72E78E0F72ED4CFE9EFD2
:10376000F7E0E4910E2F10E069EFE62E67E0F62E09
:10377000CACF4430510531F49091C7019F5F9093B7
:10378000C701D2CF4F3F510589F0833050F190915E
:10379000C801923088F68530B1F59923D1F0809137
:1037A000C6019091C701892B88231AC09091C80146
:1037B0009F5F9093C801B8CF8913F1CF81E0C2CF4A
:1037C0002091C6018530F9F44F3F510531F7913012
:1037D000B1F08091C601833021F48091C70181301E
:1037E00069F30E94E0169093AB048093AA0481E0F1
:1037F0008093AC040115110509F484CE1AC022305F
:1038000071F683E09FCF2091C601843031F691118B
:10381000C6CF2230F1F696CF8330910508F072CEF4
:10382000FC01EE0FFF1FE65DFE4FE080F18009E036
:1038300010E08091E800877F8093E8008091D401B8
:103840009091D5010817190708F4C80140E00097C6
:10385000D1F4411118C08091E80082FDFFCE809123
:10386000B404882309F4FACE853009F4F7CE8091A8
:10387000E80083FFF0CFF2CE02E110E097EEE92EF0
:1038800097E0F92ED6CF2091B404222309F4E6CE96
:10389000253009F4E3CE2091E80023FDDFCE20910E
:1038A000E80022FDD8CF2091E80020FFD0CF309152
:1038B000F3002091F200009719F02830310558F0FC
:1038C00041E02830310509F040E02091E8002E77F2
:1038D0002093E800BCCFF70144914093F100FFEF43
:1038E000EF1AFF0A01972F5F3F4FE5CF803809F0AD
:1038F00009CE8091E800877F8093E8008091CC0119
:103900008093F100F5CD8111FDCD1091D0011230E1
:1039100008F0F8CD8091E800877F8093E80010934D
:10392000CC010E94C50A112349F184E08093B404BC
:1039300042E061EC81E00E94300D42E261EC84E003
:103940000E94300D42E261EC82E00E94300D42E2C2
:1039500060EC83E00E94300D42E361E885E00E9464
:10396000300D42E360E886E00E94300D8091B4049F
:10397000843051F482E00E946C19C4CD8091E30040
:1039800087FDD3CF81E0D2CF81E0F5CF9C014FB747
:10399000F8948091DF019091E001A091E101B09154
:1039A000E2014FBF821B930B0895ACE0B0E0EBED5A
:1039B000FCE10C941A344F8358878B879C87809145
:1039C0004C0590914D050E94C61C10E000E00B973D
:1039D000B8F000915805109159050E94E016909397
:1039E0004D0580934C05B80186E30E947F0E082F99
:1039F000609156057091570581EF0E947F0E182F38
:103A0000609158057091590586E30E94FE0D8195DD
:103A100080934E05609156057091570581EF0E9485
:103A2000FE0D80934F0580915105882311F010E021
:103A300000E009871A8786E0FE013796DE011196BD
:103A400001900D928A95E1F729813A814B815C8141
:103A50006D817E8180E090E02C96E4E00C94363419
:103A60000F931F93CF93DF93C62FD42F122F88234A
:103A7000A9F0609300050E94E0169093BD01809329
:103A8000BC01C77081E001C0880FCA95EAF70E94A7
:103A90002113DF91CF911F910F910895809100051F
:103AA000681332C08091BC019091BD010E94C61C78
:103AB000883C910548F5CD130CC0812F0E941C193C
:103AC000D77081E001C0880FDA95EAF70E942B13C6
:103AD000E0CFC77001E0802F01C0880FCA95EAF7D8
:103AE0000E942B1380E28D0F883050F48D2F877049
:103AF00001C0000F8A95EAF7802F0E942113DDCFC5
:103B0000812F0E941C19C5CFC77081E001C0880FAA
:103B1000CA95EAF7DBCFA8E0B0E0E1E9FDE10C945B
:103B20000F347C01DC0114968C91882309F4ADC01C
:103B300061E0C7010E94A3118C01F70185818823F0
:103B400009F44BC1980137572038310508F02EC7CA
:103B5000003108F08AC08FEF93E00E94A8348111F1
:103B600084C028E4C22EDD24D39401114DC01A82F2
:103B70001982FE01339686E0DF011D928A95E9F7EE
:103B80005601BFEFAB1ABB0AC6010E94A834898355
:103B90001A82882309F469C0813009F07AC086014D
:103BA0000E5F1F4FC5010E94A8348A83882309F441
:103BB0005CC09FEF980F9330B0F5E3E0CE0ED11CC0
:103BC000C8010E94A8348B83882309F44EC01C824C
:103BD0008E010F5F1F4FD8018C91882389F28130AD
:103BE00009F09AC011968C911197813009F053C059
:103BF0005801B2E0AB0EB11CF80182810E941C1981
:103C000085010F5F1F4FE7CFC114F4E0DF0669F1B4
:103C1000C6010E94A83496012F5F3F4F69018111B0
:103C2000F3CF0150A2CF8430B9F492E0C92ED12C49
:103C3000C8010F5F1F4F0E94A834E1E0F0E0EC0FD5
:103C4000FD1FEC0DFD1D8083882379F08C3731F446
:103C5000FE01EC0DFD1D12826801BACFFFEFCF1AF5
:103C6000DF0A27E0C216D10419F780910705877093
:103C7000882359F0F7018581882339F0809109055F
:103C800082FF03C082E00E9411062896EFE00C94A8
:103C90002B3465019DCF823049F45801F2E0AF0E1C
:103CA000B11C12968C910E946218AACF833049F4FD
:103CB0005801B2E0AB0EB11CF80182810E94D1180C
:103CC0009FCF843019F00F5F1F4F9BCF12962C911E
:103CD0000E5F1F4F80E090E06AE0A8014F5F5F4FEA
:103CE0002053330B2A30310558F0009709F489CF5F
:103CF000AFE9BFE01197F1F700C000000197F5CFE1
:103D0000689FF001699FF00D1124C9018E0F9F1F5C
:103D1000F80121818A01E1CFE82FF0E0E45DF64F60
:103D20006490282F26952695269530E0F901E45ECB
:103D3000F64FA4908770782EB12C082E02C0B5944F
:103D4000A7940A94E2F7B1E0AB22BB24F901E45F47
:103D5000F64F8490912C02C0959487948A95E2F74F
:103D6000E1E08E229924F901E450F74F5490A11418
:103D7000B104B1F48114910411F560E070E0862D76
:103D80000E940419E52DF0E0072C02C0F595E79597
:103D90000A94E2F7E0FF35CF8CE20E941C1931CF84
:103DA00081EE0E9462188114910449F460E070E091
:103DB000862D0E94041981EE0E94D118E3CF86EE71
:103DC0000E94621860E070E0862D0E94041986EE61
:103DD0000E94D118AB28B1F2EECFF801FE57EE31B8
:103DE000F10508F03BC2E25DF84C0C94853461E0CB
:103DF00083E090E00E94CC3481E00E943B05F70113
:103E00008581811132C00631FCE71F0709F427C301
:103E1000C80194578034910508F427CF81E0073713
:103E20002CE7120731F082E008372CE7120709F07F
:103E300038C30E944D0550C281E00E94410503C075
:103E400081E00E944D0543E062E081E00E94E605CA
:103E5000D6CF82E0F2CF82E0F4CF83E00E9441052A
:103E6000D70115968C91882399F210920005C8010C
:103E70009057839708F0BCC184E090E00E94B6346C
:103E80009093090580930805F801E150F047E2326C
:103E9000F10508F027C2E45BF84C0C94853483E00C
:103EA0000E944D05F7018581DECF9091500593303A
:103EB000C9F09F5F909350059093530581E001C036
:103EC000880F9A95EAF70E943E054091520550915D
:103ED0005305609154057091550583E190E00E946F
:103EE000DE348DCF90E0E6CF80915105843031F003
:103EF0008F5F8093510580935205E7CF80E0F9CF23
:103F00000E94DA0DCFCF8091FF04833021F08091A1
:103F1000FF04843021F483EE0E94621870CF80EE9B
:103F2000FBCF8091FF04833021F08091FF04843027
:103F3000B9F483EE2CC08091FF04833021F080918E
:103F4000FF04843039F483EE0E9462188DE10E94F0
:103F50001C19EFCF80EE0E9462188DE10E941C199F
:103F600080EE15C08091FF04833021F08091FF0422
:103F7000843081F481EE0E94621883EE0E94621800
:103F80008DE10E941C1983EE0E94D11881EE0E94DF
:103F9000D11835CF81EE0E94621880EE0E9462181F
:103FA0008DE10E941C1980EEEFCF8091FF048330D9
:103FB00021F08091FF04843029F483EE0E9462187E
:103FC00086E0C5CF80EE0E94621886E0C7CF809160
:103FD000FF04833021F08091FF04843029F483EEC4
:103FE0000E9462188BE1B3CF80EE0E9462188BE1D1
:103FF000B5CF8091FF04833021F08091FF0484309D
:1040000029F483EE0E94621889E1A1CF80EE0E941C
:10401000621889E1A3CF8091FF04833021F0809161
:10402000FF04843029F483EE0E94621887E58FCF65
:1040300080EE0E94621887E591CF8091FF04833063
:1040400021F08091FF04843029F483EE0E946218ED
:1040500086E57DCF80EE0E94621886E57FCF809155
:10406000FF04833021F08091FF04843029F483EE33
:104070000E94621887E26BCF80EE0E94621887E28E
:104080006DCF8091FF04833021F08091FF04843054
:1040900041F481EE0E94621883EE0E94621881E270
:1040A00070CF81EE0E94621883EE0E94621886E152
:1040B00068CF8091FF04833021F08091FF04843029
:1040C00029F483EE0E94621886E141CF80EE0E94BF
:1040D000621886E143CF8091FF04833011F3809111
:1040E000FF048430F1F281EE0E94621880EE0E949B
:1040F000621886E156CF80EE0E9462188BE22ECFC6
:1041000081EE0E94621880EE0E9462188BE249CF15
:104110008091FF04833021F08091FF04843029F4E2
:1041200083EE0E9462188AE112CF80EE0E9462182C
:104130008AE114CF8091FF04833021F08091FF0445
:10414000843041F481EE0E94621883EE0E9462186E
:1041500087E117CF81EE0E94621880EE0E946218FC
:1041600087E11FCF8091FF04833021F08091FF040D
:10417000843029F483EE0E9462188BE2E8CE82EE4E
:104180000E9462188BE20E941C1982EE00CF80917F
:10419000FF04833021F08091FF04843041F481EEEC
:1041A0000E94621883EE0E9462188BE2EACE81EED2
:1041B0000E94621882EE0E9462188BE20E941C1913
:1041C00082EEE2CE8091FF04833029F08091FF04DB
:1041D000843009F076CF83EE0E9462188CE2B7CE6D
:1041E000D70115968C91882309F412CE1092000500
:1041F00006313CE7130709F061C0809102058A7A15
:1042000091E0811101C090E090930105882309F4A9
:104210002EC185E30E94AD090E94CF1226CD809168
:10422000FF04843009F0EBCD83EE0E9462188BE02E
:104230008ECEF7018581D7CF8091FF04843009F0BD
:10424000DECD83EE0E94621882EE0E94621887E043
:104250000E941C1982EE0E94D1186BCEF801E85121
:10426000FC47E730F10508F0CACDE259F84C0C9450
:10427000853426E241EE61EE0E94301DF6CC27E245
:1042800045EE65EEF9CF26E241EE60EEF5CF27E28E
:1042900045EE64EEF1CF26E241EE62EEEDCF27E28D
:1042A00045EE66EEE9CF28E241E0EBCFD701159667
:1042B0008C91882309F4ACCD10920005C801945765
:1042C0008034910508F4D1CC07378CE7180709F042
:1042D00066C381E00E94410543E062E081E00E9404
:1042E000E605C3CC80910805816080930805609144
:1042F00008057091090584E090E00E94EA340E946C
:104300002519B3CC80910905886080930905EFCF0A
:10431000809108058260E9CF809108058460E5CF2F
:10432000809108058860E1CF809109058160EDCF1B
:10433000809109058260E9CF809108058061D5CF21
:10434000809108058062D1CF809108058064CDCF2F
:104350000E942519809108058068C7CF80910805C3
:104360008C60C3CF809109058360CFCF8091080511
:104370008E7FBBCF80910905877FC7CF80910805CD
:104380008D7FB3CF809108058B7FAFCF80910805DB
:10439000877FABCF809109058E7FB7CF80910905CC
:1043A0008D7FB3CF809108058F7E9FCF80910805C8
:1043B0008F7D9BCF809108058F7B97CF0E94251919
:1043C000809108058F7791CF80910805837F8DCFED
:1043D000809109058C7F99CF8091080582FB9927F0
:1043E00090F921E0922790FB82F990FB83F97DCF31
:1043F00080910905982F909591708E7F892B90FB65
:1044000081F983CF90910805892F8F7B96FF806477
:104410006CCF0E94251990910805892F97FB87F989
:10442000805863CF61E08EE090E00E94CC345FCF93
:1044300060E0F9CF90910805892F8F7E94FF80610D
:1044400054CF90910805892F8E7F90FF81604DCFCA
:1044500090910905892F877F93FF886056CF8091BF
:104460000105811106C089E20E94E109D5CE89E2E9
:10447000D1CE85E3F9CF0A359CE7190709F48AC044
:1044800008F060C00130BCE71B0709F481C00330AD
:10449000ECE71E0709F476C00115FCE71F0709F4D5
:1044A00064C0D70115968C911597CD90DC90882328
:1044B00009F474C0C6010E947811182F682FC60134
:1044C0000E94B405B601812F0E9459110E944A072B
:1044D000C82E192FF701B580A680A2948FE0A822DC
:1044E000809107058770882309F1DB2CBB20F9F048
:1044F000892F807F803469F080E28C0D8830B0F0A5
:10450000892F807E803229F4F1E0FC1578F4AA200E
:1045100069F08091090582FF09C082E00E941106BE
:10452000809107058770DD24D3948111D12CE12F70
:10453000E295EF70103C08F098C0F0E0EB58F84CB2
:104540000C9485340B352CE7120731F10C353CE720
:10455000130709F0A6CF8091090582FB882780F90F
:1045600091E089270E94F20F9CCF0E9425198FEFBE
:1045700094E3ACE081509040A040E1F700C000001F
:104580000E94580A6FEF7FEF80E090E00E94EA34CB
:104590000E94561981E0E6CF80E0E4CFC6010E9478
:1045A000CD05182F8FCF012F0F70103110F002950D
:1045B000007FBB20B9F0002369F080E28C0D8830C9
:1045C00010F0C11009C080910205802B8093020574
:1045D0000E94CF128C2D41C080910A05802B8093C0
:1045E0000A05F6CF8C2D0E94D1180023F1F180E24C
:1045F0008C0D883010F0C11004C0802F0E944F062F
:1046000006C0009580910A05802380930A050E94C8
:10461000CF122BC0012F0F70107F103211F00295B6
:10462000007FCC2051F021E0C21609F46BC0BB2002
:1046300009F477C0AA20C9F1CDCF8091090582FD88
:1046400030C0BB2069F0002339F080910205802B37
:10465000809302050E94CF1280E00E94621805C07C
:1046600080E00E94D1180111C8CFDD20A9F080910F
:10467000070580FD11C0F701158286958695869500
:104680000E944105C7010E948B1D809107058695F8
:10469000869586950E944D0560E0C7010E94A31192
:1046A000F4CABB2099F0A11004C0802F0E942113EE
:1046B000DCCF31E0A312D9CF80910305902F98234E
:1046C000091799F2802B80930305CFCFA110CDCF8E
:1046D000802F0E942B1390910305802F892388231C
:1046E00029F0802F8095892380930305809104050C
:1046F000902F9823992309F4B8CF009508230093AD
:104700000405B3CFBB2029F085E08A1508F4ADCFAE
:10471000CCCF94E09A1508F4A8CF802F0E942B13D9
:10472000A4CFAA20D1F3A9E3CA1209C0BFEFE7EED4
:10473000F3E0B150E040F040E1F700C000008C2D04
:104740000E94D11892CF812F8695869583708823F9
:1047500069F0813009F089CF8C2D912F9370B110C1
:1047600002C080E090E00E9487097FCF8C2D912FBE
:104770009370B11002C080E090E00E94610975CF93
:104780006B2D8C2D0E94091770CF812F83708111A2
:1047900037C0B1102AC04C2D429546954770440F42
:1047A000440F2C2D2F70042E01C0220F0A94EAF71B
:1047B0009C2D9071992341F08FE090E001C0880F0B
:1047C0004A95EAF7982F9095169516951370123022
:1047D00091F0892F822B133031F080910505113033
:1047E00039F0292B82230E943B050E9445093DCFC9
:1047F000822B892BF8CF292B809105058227F3CFB7
:10480000BB2069F110FFF1CF4C2D429546954770C2
:10481000440F440F2C2D2F70042E01C0220F0A9438
:10482000EAF79C2D9071992341F08FE090E001C050
:10483000880F4A95EAF7982F90951695169513705C
:10484000123099F0892F822B133031F080910605B8
:10485000113041F0292B82230E943E05C6CF8230C1
:1048600020F2D2CF822B892BF7CF292B80910605FE
:104870008227F2CF1F70BB2039F0812F0E944105A3
:104880008C2D0E942113B1CF8C2D0E942B13812FD0
:104890000E944D05AACF22EFC216A9F12C1588F06F
:1048A00030EFC316D9F081EFC81609F443C0BB201E
:1048B00009F462C0AA2009F45CC08C2D0E94621821
:1048C00094CF93EFC91631F1A4EFCA1679F1B11064
:1048D000F1CFA11060C0812F8F71DACFBB2081F0A2
:1048E000B4E0BA1508F481CF1F7181E090E0012E89
:1048F00001C0880F0A94EAF7909106058927ACCF8A
:10490000E5E0AE16EFCF812F8F71B110C1CF0E94BD
:1049100041056BCF80E0BB2009F49ECF1F7181E081
:10492000012E01C0880F0A94EAF796CF90910905ED
:1049300092FD06C0812F8F71BB2009F4A9CFE7CF6C
:10494000BB2061F0812F8F7192FFE1CFF8E08F9F44
:1049500090011124236020930705D9CF81E00E94A4
:10496000110621E02A1508F040CF82E00E941106CE
:104970003CCF812F8F71CBCFAA2009F4ACCF39E384
:10498000C31209C08FEF97EEA3E081509040A04082
:10499000E1F700C000008C2D0E94D11826CF083707
:1049A000FCE71F0709F067CD82E094CCF801FE57C1
:1049B000EE31F10508F052CCEF57F84C0C948534E9
:1049C00080914B05803178F480914A05882359F015
:1049D000E0910C0520910B0530914605409145056D
:1049E00057E02E1301C008956E2F70E05E9FF00116
:1049F0001124DF01A35FBA4F14968C91149788237A
:104A000061F111968C911197831327C08C918413B7
:104A100024C015968C91159781111FC012968D9107
:104A20009C91A0914705B09148058A1B9B0B883C3F
:104A3000910598F480914B058F70806180934B05B0
:104A4000ED5EFA4F80818F708061808385E495E010
:104A50000E948B1D0E9407060895FB013196E770A6
:104A6000C0CFADE0B0E0E7E3F5E20C9410348C0188
:104A700086E0F801DE01189601900D928A95E1F723
:104A8000F8017080F580A280B380848195E4892E3E
:104A900095E0992E60904905611018C0882399F01F
:104AA000FF2009F413C1C8010E94D211882309F420
:104AB0000DC187E0F801A5E4B5E001900D928A955B
:104AC000E1F70E94E024FF24F39453C0D0904A05FC
:104AD0002091470530914805A501421B530BDD206D
:104AE00009F4C4C0483C510508F07AC0882359F342
:104AF00080914605C180E0904B05FFE0FE1508F46B
:104B000059C0C81215C080914505871111C0F11018
:104B10004BC08E2D8F70806180934B0585E495E0AE
:104B20000E948B1D80914B05F8018683F12C21C0DA
:104B3000F1103AC040E06C2D872D0E94BB0D40E083
:104B40006C2D872D0E94BB0DF82E8111EFCF88852B
:104B500099850E94C311292F22952F70903470F4EB
:104B60009F702230A0F09923B1F0F8019681903126
:104B700090F48F2D2D96EEE00C942C342A5F2F703C
:104B8000223068F0C8010E948B1DFD2CF2CF9923C2
:104B900011F0882371F3805E883058F3F3CF803FA3
:104BA00040F3815F8230F9CF80914B058160809323
:104BB0004B05BCCFC8123CC080914505871138C059
:104BC000F11036C0F801E682C8010E948B1D87E013
:104BD000F801A5E4B5E001900D928A95E1F773CF55
:104BE000E0904B05FFE0FE1550F085E495E00E9453
:104BF0008B1D87E0F40111928A95E9F797CF8823FE
:104C000009F461CF90914605F8018181981310C095
:104C10008091450587110CC0F1100AC0E682C801D9
:104C20000E948B1D87E0F40111928A95E9F74BCF22
:104C3000C8010E94D211882309F448C0FF2009F45A
:104C400045C080914B05803208F433CF80914505F3
:104C5000909146059A838983BC82AB826D821E82C5
:104C6000EF82CE0101960E948B1D23CF483C510557
:104C700008F0BFCF882309F426CFFF2039F19091A7
:104C800046058181981318C080914505871114C08D
:104C900080914B0580FD9BCF803108F498CF8683AF
:104CA000807F803F09F490CF8681982F907F905F1E
:104CB0008F70892B868388CFC8010E94D211811101
:104CC000F8CE80914B05816080934B05C8010E940E
:104CD0008B1DF9CEABE1B0E0E0E7F6E20C941B34BB
:104CE0004E8B5F8B688F798F8A8F9B8F911110927B
:104CF0000A051D8A86E0FE017696DE011F96019068
:104D00000D928A95E1F78B89882329F061E0CE0125
:104D10000F960E94A31187E0FE013F96DE011896D0
:104D200001900D928A95E1F7CE0108960E943125F7
:104D300081112BC087E0FE013896DE0111960190AB
:104D40000D928A95E1F720910B0540910C058C8519
:104D50008823D9F030E0C90101968770992750E087
:104D600084179507E9F097E0929FD001939FB00DCB
:104D70001124A35FBA4FFE01319601900D929A95CE
:104D8000E1F780930B050E94070617E080910C0560
:104D900090910B05891312C06B96E3E00C943734A5
:104DA0000E94251910920B0510920C0587E0E5E48E
:104DB000F5E0DF011D928A95E9F7E7CF189FC00162
:104DC0001124835F9A4F0E943125882329F3809113
:104DD0000C0590E001968770992780930C05D6CF3B
:104DE000A6E0B0E0E6EFF6E20C941A340E94E0167A
:104DF0008C018091B5049091B6048017910779F0E9
:104E000019821A820E94E016BC0149815A8180E011
:104E100090E00E946A261093B6040093B50426968B
:104E2000E4E00C943634ABE0B0E0E9E1F7E20C9456
:104E300017341A821982FE01339685E0DF011D9234
:104E40008A95E9F738E3E32E31E0F32EDD24D3949D
:104E500001E010E0F70181917F018F3F09F44AC022
:104E6000F894E82FE295EF70F0E021A18F70A8018F
:104E700002C0440F551F8A95E2F7CA01922F982B62
:104E800091A392A18095892382A3789400C06CE3BA
:104E900071E0DE0111964D2D4095FB013191BF016E
:104EA0002D913F3F09F47DC0832F82958F70805EE6
:104EB00090E0FC01808190E03F7002C0959587955D
:104EC0003A95E2F7817081116CC0822F8D299D0186
:104ED00021503109F9018083F1E063347F07E9F65D
:104EE000F701319780818F3F11F00E94650820EA19
:104EF0002A95F1F7DD0C3CE3E31631E0F30609F007
:104F0000A9CF47E050E0BE016F5F7F4F8EEF91E089
:104F10000E949B34892B09F447C087E0FE0131963B
:104F2000AEEFB1E001900D928A95E1F781E08093B8
:104F3000BB010E94E0169093BA018093B901809161
:104F4000B40191E0980F9093B401811116C087EFDE
:104F50000E947E3223E0959587952A95E1F780950A
:104F6000082F0F77E091B503F091B6032EE342EBE3
:104F700063E070E085EB93E0099580915105813005
:104F800009F081C090914F052091B80121112FC0E7
:104F9000993D0CF047C08093B80189ED0E946218DA
:104FA00032C0842F822393CF8091BB01882339F2B2
:104FB0008091B9019091BA010E94C61C059708F42E
:104FC000BECF47E050E06EEF71E08DEA94E00E94C2
:104FD0009B34892B49F087E0EEEFF1E0ADEAB4E0D5
:104FE00001900D928A95E1F71092BB01A8CF993DEF
:104FF00034F01092B80189ED0E94D11804C080915C
:10500000B70181111BC080914E059091B60191119D
:1050100019C0893D3CF581E08093B6018BED0E947B
:1050200062181CC02091B701211106C098325CF3B0
:105030008093B7018AEDB2CF98322CF71092B70166
:105040008AEDDACF893D34F01092B6018BED0E94E3
:10505000D11804C08091B501811111C02B96E7E0F1
:105060000C9433349091B501911107C08832B4F398
:1050700081E08093B5018CEDD2CF88327CF710921D
:10508000B5018CEDE4CF823009F058C080914F0516
:105090009091B801911109C0893D04F581E0809398
:1050A000B8018AE10E9462180CC0893D34F0109268
:1050B000B8018AE10E94D11804C08091B701811122
:1050C0001AC080914E059091B601911118C0893D8A
:1050D0002CF581E08093B60184E0A1CF9091B701D7
:1050E000911107C088326CF381E08093B70186E1AB
:1050F000D9CF883234F71092B70186E1DBCF893DF2
:1051000024F01092B60184E0A2CF8091B5018823EB
:1051100009F4A4CF1092B50187E099CF9091B50121
:10512000911108C088320CF499CF81E08093B501C9
:1051300087E075CF88320CF091CFECCF833009F047
:10514000D6C080914F059091B80191111BC0893D47
:105150000CF054C081E08093B80180910605282F9F
:1051600030E040E050E0288739874A875B87CA01F2
:10517000B9010E94070540E066E00E94F2100E941B
:1051800062181DC0893DBCF01092B80180910605DF
:10519000282F30E040E050E0288739874A875B8736
:1051A000CA01B9010E94070540E066E00E94F210C2
:1051B0000E94D11804C08091B70181113AC080913A
:1051C0004E059091B601911146C0893D0CF071C019
:1051D00081E08093B60180910605282F30E040E001
:1051E00050E0288739874A875B87CA01B9010E9446
:1051F000070541E066E00E94F21011CF9091B701DF
:10520000911115C08832DCF281E08093B701809162
:105210000605282F30E040E050E0288739874A878C
:105220005B87CA01B9010E94070543E0A5CF883218
:1052300034F61092B70180910605282F30E040E047
:1052400050E0288739874A875B87CA01B9010E94E5
:10525000070543E0AACF893DACF01092B6018091DA
:105260000605282F30E040E050E0288739874A873C
:105270005B87CA01B9010E94070541E066E00E9410
:10528000F210E5CE8091B501882309F4E7CE1092A3
:10529000B50180910605282F30E040E050E02887D6
:1052A00039874A875B87CA01B9010E94070542E036
:1052B000E5CF9091B501911116C088320CF4CECE95
:1052C00081E08093B50180910605282F30E040E011
:1052D00050E0288739874A875B87CA01B9010E9455
:1052E000070542E087CF88320CF0B8CED0CF8430AB
:1052F00009F0B4CE80914E05082E000C990B209138
:10530000A3043091A4048217930739F09093A40466
:105310008093A30481E08093A70480914F05082E19
:10532000000C990B2091A5043091A60482179307D5
:1053300009F494CE9093A6048093A50481E0809311
:10534000A7048CCECDB7DEB7E0970FB6F894DEBFDA
:105350000FBECDBF85B7806885BF85B7806885BF24
:105360001092DA031092DC031092DB0380EC80933E
:105370009F048DED93E09093A1048093A00410927C
:105380009E0410929D041092BA031092B9031092D9
:10539000BC031092BB031092BE031092BD03109287
:1053A000C0031092BF031092C2031092C103109267
:1053B000C4031092C3031092C6031092C503109247
:1053C000C8031092C7031092CA031092C903109227
:1053D000CC031092CB031092CE031092CD03109207
:1053E000D0031092CF031092D4031092D30382EE15
:1053F0009CE09093B6038093B50382E69BE0909384
:10540000D6038093D5038EE798E09093D2038093E0
:10541000D1038FE798E09093B8038093B70384B7E4
:10542000877F84BF0FB6F894A8958091600088614B
:1054300080936000109260000FBE80E890E00FB68D
:10544000F89480936100909361000FBE81E00E9408
:105450006C1983E698E090938B0180938A010E94F7
:10546000150B0E94600D8091E20084608093E20041
:1054700078948091B404882399F08091E900109188
:10548000EC001795112717958F70182B1092E900D3
:105490008091E80083FD0E9478191F701093E90045
:1054A00082E084BD93E095BD9AEF97BD80936E0036
:1054B0000E94F811811102C00E94E210E7EAF3E0B5
:1054C00089E0DF011D928A95E9F784E08093A603C5
:1054D00010E060E0812F0E94B20861E0812F0E94FD
:1054E000B2081F5F1430A9F7EFE8F1E03197F1F748
:1054F00000C0000010E08091A603181708F4B9C09E
:1055000084E90E94650887E90E94650884E30E9497
:10551000650885E30E9465080CE311E0D8018D91D0
:105520008D018F3F11F00E946508B1E003341B0725
:10553000A9F787E0EDEAF4E0DF01282F1D922A9514
:10554000E9F7EEEFF1E0DF011D928A95E9F70E949D
:105550006C0F80E090E00E94B634853E9E4F21F4AF
:105560000E94F81181115EC065EE7EEF80E090E050
:105570000E94EA3460E082E090E00E94CC3481E056
:105580008093050561E083E090E00E94CC3460E008
:1055900074E184E090E00E94EA3460E086E090E00C
:1055A0000E94CC3460E087E090E00E94CC3440E080
:1055B00050E0BA0188E090E00E94DE3460E083E2CF
:1055C00090E00E94CC3460E08CE090E00E94CC340B
:1055D00060E08DE090E00E94CC3419821A821B8238
:1055E0001C821D821E821F82188648E050E067E1FF
:1055F00070E0CE0101960E94BC3440E050E0BA0158
:105600008FE190E00E94DE3480E00E94C4100E948E
:10561000E21040E050E0BA018FE090E00E94DE34FA
:105620000E946C0F82E090E00E94A8348093960361
:1056300084E090E00E94B6349093090580930805B9
:105640000E941327EFEFF6E721E0E150F040204001
:10565000E1F700C000000E9413278091AD0480FF95
:105660001AC06FEF7FEF80E090E00E94EA340E9462
:10567000580A60E0812F0E94D508082F61E0812F31
:105680000E94D508E12FF0E0EE55FC4F880F802BEB
:1056900080831F5F30CF83E090E00E94A8340E9497
:1056A0003B051092930380E4809392030E94D832CA
:1056B000529A5A983FEF89EF90E0315080409040E5
:1056C000E1F700C000005A9AAFEFB9EFE0E0A15057
:1056D000B040E040E1F700C000006BE070E081EF17
:1056E00098E00E943213882309F449C08091930303
:1056F00065E070E081FDAEC08CEE98E00E94321350
:105700008823E9F16DE070E08AED98E00E943213A1
:105710008823A9F10E943B0A6DA77EA78FA798ABAB
:10572000DC01CB01805A9541AF4FBF4F80938E0370
:1057300090938F03A0939003B0939103EBE0F2E07A
:1057400080E891E0DF019C011D9221503040E1F79B
:10575000F0930A02E09309028FEF9FEFAFEFB0E002
:105760008093050290930602A0930702B09308026B
:1057700081E080938D0380938C0310928B030E94B1
:10578000E90D87E091E09093D8048093D70468E115
:10579000A62EB12C74E0472E512CE5E0EE2EF12C14
:1057A0008091B404853049F48091B404853009F4C3
:1057B00054C00E9425190E9445090E94132707E939
:1057C00013E05DEAC52E54E0D52E2EE933E0D60174
:1057D000F80191918D912E173F0709F491C0981708
:1057E000C1F3912C22242394D6018D906D01F801F0
:1057F00031908F01381429F13824712C6624639478
:10580000832D86218823A9F079829A820E94E0164E
:105810009C838B832D8291E0882D8621811101C08C
:1058200090E09E8349815A816B817C818D810E94A9
:105830006A267394660CF4E07F12E2CFF801319788
:105840008082939427E09212CFCF0E943B0ACC240F
:10585000C3945BC087EE98E051CF8091B40484304C
:1058600031F10E943F130E943A121092940330E4E7
:105870000FB6F894A895A09260000FBE3093600018
:1058800083B7817F846083BF83B7816083BF78944F
:10589000889583B78E7F83BF0FB6F894A8958091C3
:1058A0006000886180936000109260000FBE80915C
:1058B0009503882309F478CF0E941327EDEAF4E0DA
:1058C0008191811105C084E0E43BF807C9F76CCFF2
:1058D00080E189BD82E189BD09B400FEFDCF8091E0
:1058E000D8008F7D8093D8008091E0008260809303
:1058F000E0008091E00081FDFCCF0E94251954CF8B
:1059000098136FCF0E94F026C12C8091B00388239A
:1059100051F08091A9031092B0038093AA03809163
:10592000A7038093A80300E049C061E0802F0E9494
:10593000D508982E60E0802F0E94D508990C8929FF
:10594000202F30E0D901AE55BC4FEC919E2F9370C3
:10595000891799F1EE0FEE0FE82BEC93EF70F0E062
:10596000ED5BFE4F22563C4F8081D9019C91482F20
:10597000490F4C9344300CF465C0E12FF0E0CF01A7
:105980000196B7010E94F8336D2D70E06817790712
:1059900061F0E955FC4F902F9F7794838093A90382
:1059A0008091A7038F5F8093A703842F440F990BE7
:1059B000B2010E944F34F90180830F5FD090AA0397
:1059C0001091A9038091A603081708F4AECF90E0C8
:1059D0000CEF23E0822EDD24D3943DEF932E42E0A2
:1059E000742E8091AA032091A903281709F461C09D
:1059F00090E0FC01E555FC4F2081122F1F770196A6
:105A0000B7010E94F8338093AA038091A8038F5FA7
:105A10008093A80327FD2BC019A30AA30E94E016B8
:105A2000BC018BA39CA38DA2DEA249A15AA183E055
:105A300091E00E946A261FA308A70E94E016282F63
:105A400083E02AC04D3F0CF0B0CFE12FF0E0CF0152
:105A50000196B7010E94F8336D2D70E06817790741
:105A600009F4A3CFE955FC4F902F906896CF19A366
:105A70009AA20E94E016BC018BA39CA37DA2DEA289
:105A800049A15AA182E091E00E946A261FA398A62C
:105A90000E94E016282F82E0622F792F29A79AA76B
:105AA0008BA71CA64FA158A590E00E946A2691E002
:105AB00098CF992361F00E943B0A0E943A1281110B
:105AC0000E943B0A0E9484140E94511308C00E9445
:105AD0003A128111F5CF0E948414C110F5CF86E0EF
